{
  "contractName": "MyCrowdSale",
  "abi": [
    {
      "constant": true,
      "inputs": [],
      "name": "preSaleStartTime",
      "outputs": [
        {
          "name": "",
          "type": "uint256"
        }
      ],
      "payable": false,
      "stateMutability": "view",
      "type": "function"
    },
    {
      "constant": false,
      "inputs": [
        {
          "name": "buyer",
          "type": "address"
        },
        {
          "name": "weiAmount",
          "type": "uint256"
        }
      ],
      "name": "buyTokens",
      "outputs": [],
      "payable": true,
      "stateMutability": "payable",
      "type": "function"
    },
    {
      "constant": false,
      "inputs": [],
      "name": "closeCrowdSale",
      "outputs": [],
      "payable": false,
      "stateMutability": "nonpayable",
      "type": "function"
    },
    {
      "constant": true,
      "inputs": [],
      "name": "preSaleExchangeRateinWei",
      "outputs": [
        {
          "name": "",
          "type": "uint256"
        }
      ],
      "payable": false,
      "stateMutability": "view",
      "type": "function"
    },
    {
      "constant": true,
      "inputs": [],
      "name": "PRE_SALE_DURATION",
      "outputs": [
        {
          "name": "",
          "type": "uint256"
        }
      ],
      "payable": false,
      "stateMutability": "view",
      "type": "function"
    },
    {
      "constant": false,
      "inputs": [],
      "name": "collectRefund",
      "outputs": [],
      "payable": true,
      "stateMutability": "payable",
      "type": "function"
    },
    {
      "constant": false,
      "inputs": [],
      "name": "openPreSale",
      "outputs": [],
      "payable": false,
      "stateMutability": "nonpayable",
      "type": "function"
    },
    {
      "constant": false,
      "inputs": [],
      "name": "resumeSale",
      "outputs": [
        {
          "name": "",
          "type": "bool"
        }
      ],
      "payable": false,
      "stateMutability": "nonpayable",
      "type": "function"
    },
    {
      "constant": true,
      "inputs": [],
      "name": "generalSaleExchangeRateinWei",
      "outputs": [
        {
          "name": "",
          "type": "uint256"
        }
      ],
      "payable": false,
      "stateMutability": "view",
      "type": "function"
    },
    {
      "constant": true,
      "inputs": [],
      "name": "wallet",
      "outputs": [
        {
          "name": "",
          "type": "address"
        }
      ],
      "payable": false,
      "stateMutability": "view",
      "type": "function"
    },
    {
      "constant": true,
      "inputs": [],
      "name": "generalSaleStartTime",
      "outputs": [
        {
          "name": "",
          "type": "uint256"
        }
      ],
      "payable": false,
      "stateMutability": "view",
      "type": "function"
    },
    {
      "constant": false,
      "inputs": [],
      "name": "haltSale",
      "outputs": [
        {
          "name": "",
          "type": "bool"
        }
      ],
      "payable": false,
      "stateMutability": "nonpayable",
      "type": "function"
    },
    {
      "constant": true,
      "inputs": [],
      "name": "GENERAL_SALE_DURATION",
      "outputs": [
        {
          "name": "",
          "type": "uint256"
        }
      ],
      "payable": false,
      "stateMutability": "view",
      "type": "function"
    },
    {
      "constant": true,
      "inputs": [],
      "name": "generalSaleEndTime",
      "outputs": [
        {
          "name": "",
          "type": "uint256"
        }
      ],
      "payable": false,
      "stateMutability": "view",
      "type": "function"
    },
    {
      "constant": false,
      "inputs": [],
      "name": "collectTokens",
      "outputs": [
        {
          "name": "",
          "type": "bool"
        }
      ],
      "payable": false,
      "stateMutability": "nonpayable",
      "type": "function"
    },
    {
      "constant": false,
      "inputs": [],
      "name": "loadRefund",
      "outputs": [],
      "payable": true,
      "stateMutability": "payable",
      "type": "function"
    },
    {
      "constant": true,
      "inputs": [],
      "name": "owner",
      "outputs": [
        {
          "name": "",
          "type": "address"
        }
      ],
      "payable": false,
      "stateMutability": "view",
      "type": "function"
    },
    {
      "constant": true,
      "inputs": [],
      "name": "minimumFunding",
      "outputs": [
        {
          "name": "",
          "type": "uint256"
        }
      ],
      "payable": false,
      "stateMutability": "view",
      "type": "function"
    },
    {
      "constant": false,
      "inputs": [
        {
          "name": "_softcap",
          "type": "uint256"
        },
        {
          "name": "_hardcap",
          "type": "uint256"
        }
      ],
      "name": "updateSaleLimits",
      "outputs": [
        {
          "name": "",
          "type": "bool"
        }
      ],
      "payable": false,
      "stateMutability": "nonpayable",
      "type": "function"
    },
    {
      "constant": true,
      "inputs": [],
      "name": "maximumFunding",
      "outputs": [
        {
          "name": "",
          "type": "uint256"
        }
      ],
      "payable": false,
      "stateMutability": "view",
      "type": "function"
    },
    {
      "constant": false,
      "inputs": [],
      "name": "closeGeneralSale",
      "outputs": [],
      "payable": false,
      "stateMutability": "nonpayable",
      "type": "function"
    },
    {
      "constant": true,
      "inputs": [],
      "name": "halted",
      "outputs": [
        {
          "name": "",
          "type": "bool"
        }
      ],
      "payable": false,
      "stateMutability": "view",
      "type": "function"
    },
    {
      "constant": true,
      "inputs": [],
      "name": "state",
      "outputs": [
        {
          "name": "",
          "type": "uint8"
        }
      ],
      "payable": false,
      "stateMutability": "view",
      "type": "function"
    },
    {
      "constant": false,
      "inputs": [],
      "name": "closePreSale",
      "outputs": [],
      "payable": false,
      "stateMutability": "nonpayable",
      "type": "function"
    },
    {
      "constant": true,
      "inputs": [],
      "name": "preSaleEndTime",
      "outputs": [
        {
          "name": "",
          "type": "uint256"
        }
      ],
      "payable": false,
      "stateMutability": "view",
      "type": "function"
    },
    {
      "constant": false,
      "inputs": [
        {
          "name": "preSaleXRATE",
          "type": "uint256"
        },
        {
          "name": "generalSaleXRATE",
          "type": "uint256"
        }
      ],
      "name": "updateExchangeRates",
      "outputs": [
        {
          "name": "",
          "type": "bool"
        }
      ],
      "payable": false,
      "stateMutability": "nonpayable",
      "type": "function"
    },
    {
      "constant": false,
      "inputs": [
        {
          "name": "newOwner",
          "type": "address"
        }
      ],
      "name": "transferOwnership",
      "outputs": [
        {
          "name": "",
          "type": "bool"
        }
      ],
      "payable": false,
      "stateMutability": "nonpayable",
      "type": "function"
    },
    {
      "constant": true,
      "inputs": [],
      "name": "token",
      "outputs": [
        {
          "name": "",
          "type": "address"
        }
      ],
      "payable": false,
      "stateMutability": "view",
      "type": "function"
    },
    {
      "inputs": [
        {
          "name": "_tokenAddress",
          "type": "address"
        },
        {
          "name": "_startTime",
          "type": "uint256"
        }
      ],
      "payable": false,
      "stateMutability": "nonpayable",
      "type": "constructor"
    },
    {
      "payable": true,
      "stateMutability": "payable",
      "type": "fallback"
    },
    {
      "anonymous": false,
      "inputs": [
        {
          "indexed": true,
          "name": "_buyer",
          "type": "address"
        },
        {
          "indexed": false,
          "name": "_weiAmount",
          "type": "uint256"
        },
        {
          "indexed": false,
          "name": "_numTokens",
          "type": "uint256"
        }
      ],
      "name": "TokensPurchase",
      "type": "event"
    },
    {
      "anonymous": false,
      "inputs": [
        {
          "indexed": true,
          "name": "buyer",
          "type": "address"
        },
        {
          "indexed": false,
          "name": "amount",
          "type": "uint256"
        }
      ],
      "name": "TokensCollected",
      "type": "event"
    },
    {
      "anonymous": false,
      "inputs": [
        {
          "indexed": true,
          "name": "wallet",
          "type": "address"
        },
        {
          "indexed": false,
          "name": "amount",
          "type": "uint256"
        }
      ],
      "name": "RefundFundsLoaded",
      "type": "event"
    },
    {
      "anonymous": false,
      "inputs": [
        {
          "indexed": true,
          "name": "buyer",
          "type": "address"
        },
        {
          "indexed": false,
          "name": "amount",
          "type": "uint256"
        }
      ],
      "name": "RefundProcessed",
      "type": "event"
    },
    {
      "anonymous": false,
      "inputs": [
        {
          "indexed": false,
          "name": "",
          "type": "uint256"
        },
        {
          "indexed": false,
          "name": "",
          "type": "uint256"
        }
      ],
      "name": "UpdatedSaleLimits",
      "type": "event"
    },
    {
      "anonymous": false,
      "inputs": [
        {
          "indexed": false,
          "name": "",
          "type": "uint256"
        },
        {
          "indexed": false,
          "name": "",
          "type": "uint256"
        }
      ],
      "name": "UpdatedExchangeRates",
      "type": "event"
    },
    {
      "anonymous": false,
      "inputs": [
        {
          "indexed": true,
          "name": "_wallet",
          "type": "address"
        },
        {
          "indexed": false,
          "name": "_weiAmount",
          "type": "uint256"
        }
      ],
      "name": "FundsTransferred",
      "type": "event"
    },
    {
      "anonymous": false,
      "inputs": [],
      "name": "PreSaleOpened",
      "type": "event"
    },
    {
      "anonymous": false,
      "inputs": [],
      "name": "PreSaleClosed",
      "type": "event"
    },
    {
      "anonymous": false,
      "inputs": [],
      "name": "GeneralSaleOpened",
      "type": "event"
    },
    {
      "anonymous": false,
      "inputs": [],
      "name": "GeneralSaleClosed",
      "type": "event"
    },
    {
      "anonymous": false,
      "inputs": [],
      "name": "CrowdSaleClosed",
      "type": "event"
    },
    {
      "anonymous": false,
      "inputs": [],
      "name": "FundingTargetReached",
      "type": "event"
    },
    {
      "anonymous": false,
      "inputs": [],
      "name": "FundingTargetFailed",
      "type": "event"
    },
    {
      "anonymous": false,
      "inputs": [],
      "name": "RefundingStarted",
      "type": "event"
    },
    {
      "anonymous": false,
      "inputs": [
        {
          "indexed": true,
          "name": "previousOwner",
          "type": "address"
        },
        {
          "indexed": true,
          "name": "newOwner",
          "type": "address"
        }
      ],
      "name": "EventOwnershipTransferred",
      "type": "event"
    }
  ],
  "bytecode": "0x606060405260006002556000600355600060045560006005556000600660006101000a81548160ff021916908360058111156200003857fe5b02179055506815af1d78b58c400000600755690a114faa6e63ec7c000060085566016bcc41e900006009556601b117bc2dc30c600a5573a6746c27172bc4b23b33f4597cea5f10cc4f65fe600b60006101000a81548173ffffffffffffffffffffffffffffffffffffffff021916908373ffffffffffffffffffffffffffffffffffffffff1602179055506000600c556000600d556000600e556000600f5560006010553415620000e857600080fd5b60405160408062001ea083398101604052808051906020019091908051906020019091905050336000806101000a81548173ffffffffffffffffffffffffffffffffffffffff021916908373ffffffffffffffffffffffffffffffffffffffff1602179055504281101515156200015e57600080fd5b600060058111156200016c57fe5b600660009054906101000a900460ff1660058111156200018857fe5b1415156200019557600080fd5b81600160006101000a81548173ffffffffffffffffffffffffffffffffffffffff021916908373ffffffffffffffffffffffffffffffffffffffff16021790555080600281905550620002056213c680600254620002536401000000000262001bce179091906401000000009004565b6003819055506000600160146101000a81548160ff0219169083151502179055506000600660006101000a81548160ff021916908360058111156200024657fe5b0217905550505062000275565b60008082840190508381101515156200026b57600080fd5b8091505092915050565b611c1b80620002856000396000f30060606040526004361061016a576000357c0100000000000000000000000000000000000000000000000000000000900463ffffffff16806306d65af3146101765780630752881a1461019f57806307537ad4146101d657806323dd0785146101eb57806323f9d5891461021457806326ce3da01461023d57806333bffccc1461024757806333e364cb1461025c57806347c1964414610289578063521eb273146102b25780635e2a3e90146103075780635fbaa3901461033057806376499e591461035d57806379194b86146103865780638433acd1146103af57806387612102146103dc5780638da5cb5b146103e65780638dda54621461043b57806395b0efb71461046457806399d64ab0146104a8578063b0eb5162146104d1578063b9b8af0b146104e6578063c19d93fb14610513578063c1cd1d591461054a578063cce29ea71461055f578063db6c709c14610588578063f2fde38b146105cc578063fc0c546a1461061d575b6101743334610672565b005b341561018157600080fd5b610189610a18565b6040518082815260200191505060405180910390f35b6101d4600480803573ffffffffffffffffffffffffffffffffffffffff16906020019091908035906020019091905050610672565b005b34156101e157600080fd5b6101e9610a1e565b005b34156101f657600080fd5b6101fe610bd8565b6040518082815260200191505060405180910390f35b341561021f57600080fd5b610227610bde565b6040518082815260200191505060405180910390f35b610245610be5565b005b341561025257600080fd5b61025a610d3c565b005b341561026757600080fd5b61026f610e1d565b604051808215151515815260200191505060405180910390f35b341561029457600080fd5b61029c610eeb565b6040518082815260200191505060405180910390f35b34156102bd57600080fd5b6102c5610ef1565b604051808273ffffffffffffffffffffffffffffffffffffffff1673ffffffffffffffffffffffffffffffffffffffff16815260200191505060405180910390f35b341561031257600080fd5b61031a610f17565b6040518082815260200191505060405180910390f35b341561033b57600080fd5b610343610f1d565b604051808215151515815260200191505060405180910390f35b341561036857600080fd5b610370610feb565b6040518082815260200191505060405180910390f35b341561039157600080fd5b610399610ff2565b6040518082815260200191505060405180910390f35b34156103ba57600080fd5b6103c2610ff8565b604051808215151515815260200191505060405180910390f35b6103e4611266565b005b34156103f157600080fd5b6103f96113c9565b604051808273ffffffffffffffffffffffffffffffffffffffff1673ffffffffffffffffffffffffffffffffffffffff16815260200191505060405180910390f35b341561044657600080fd5b61044e6113ee565b6040518082815260200191505060405180910390f35b341561046f57600080fd5b61048e60048080359060200190919080359060200190919050506113f4565b604051808215151515815260200191505060405180910390f35b34156104b357600080fd5b6104bb611527565b6040518082815260200191505060405180910390f35b34156104dc57600080fd5b6104e461152d565b005b34156104f157600080fd5b6104f96116c9565b604051808215151515815260200191505060405180910390f35b341561051e57600080fd5b6105266116dc565b6040518082600581111561053657fe5b60ff16815260200191505060405180910390f35b341561055557600080fd5b61055d6116ef565b005b341561056a57600080fd5b610572611821565b6040518082815260200191505060405180910390f35b341561059357600080fd5b6105b26004808035906020019091908035906020019091905050611827565b604051808215151515815260200191505060405180910390f35b34156105d757600080fd5b610603600480803573ffffffffffffffffffffffffffffffffffffffff1690602001909190505061195a565b604051808215151515815260200191505060405180910390f35b341561062857600080fd5b610630611ab7565b604051808273ffffffffffffffffffffffffffffffffffffffff1673ffffffffffffffffffffffffffffffffffffffff16815260200191505060405180910390f35b600061067c611add565b8061068b575061068a611b48565b5b151561069657600080fd5b600160149054906101000a900460ff161515156106b257600080fd5b600073ffffffffffffffffffffffffffffffffffffffff168373ffffffffffffffffffffffffffffffffffffffff16141515156106ee57600080fd5b6000821115156106fd57600080fd5b6000670de0b6b3a76400008381151561071257fe5b0614151561071f57600080fd5b6001600581111561072c57fe5b600660009054906101000a900460ff16600581111561074757fe5b141561077d576801158e460913d00000821115151561076557600080fd5b61077a60095483611bb390919063ffffffff16565b90505b6002600581111561078a57fe5b600660009054906101000a900460ff1660058111156107a557fe5b14156107db576801158e460913d0000082111515156107c357600080fd5b6107d8600a5483611bb390919063ffffffff16565b90505b61082d82601160008673ffffffffffffffffffffffffffffffffffffffff1673ffffffffffffffffffffffffffffffffffffffff16815260200190815260200160002054611bce90919063ffffffff16565b601160008573ffffffffffffffffffffffffffffffffffffffff1673ffffffffffffffffffffffffffffffffffffffff1681526020019081526020016000208190555061088582600c54611bce90919063ffffffff16565b600c819055506108a081600e54611bce90919063ffffffff16565b600e819055506108f881601260008673ffffffffffffffffffffffffffffffffffffffff1673ffffffffffffffffffffffffffffffffffffffff16815260200190815260200160002054611bce90919063ffffffff16565b601260008573ffffffffffffffffffffffffffffffffffffffff1673ffffffffffffffffffffffffffffffffffffffff168152602001908152602001600020819055508273ffffffffffffffffffffffffffffffffffffffff167f0ea049b6211f0c101a21283dc7693e84cfb30c6e2a76b09891f78163929cb5488383604051808381526020018281526020019250505060405180910390a260085482600c54011015156109b1576109a86116ef565b6109b061152d565b5b600b60009054906101000a900473ffffffffffffffffffffffffffffffffffffffff1673ffffffffffffffffffffffffffffffffffffffff166108fc839081150290604051600060405180830381858888f193505050501515610a1357600080fd5b505050565b60025481565b6000809054906101000a900473ffffffffffffffffffffffffffffffffffffffff1673ffffffffffffffffffffffffffffffffffffffff163373ffffffffffffffffffffffffffffffffffffffff16141515610a7957600080fd5b60036005811115610a8657fe5b600660009054906101000a900460ff166005811115610aa157fe5b1480610ad2575060046005811115610ab557fe5b600660009054906101000a900460ff166005811115610ad057fe5b145b1515610add57600080fd5b60036005811115610aea57fe5b600660009054906101000a900460ff166005811115610b0557fe5b1415610b2f576000600c54141515610b1c57600080fd5b600e54600f54141515610b2e57600080fd5b5b60046005811115610b3c57fe5b600660009054906101000a900460ff166005811115610b5757fe5b1415610b8157600d54600c54141515610b6f57600080fd5b6000600f54141515610b8057600080fd5b5b600580811115610b8d57fe5b600660009054906101000a900460ff166005811115610ba857fe5b50507fe298cafc920b147a0a0cb98c059bf17e0430e7ea9fa1ae202c4f6f55f4a808ec60405160405180910390a1565b60095481565b6213c68081565b600060046005811115610bf457fe5b600660009054906101000a900460ff166005811115610c0f57fe5b141515610c1b57600080fd5b6000601160003373ffffffffffffffffffffffffffffffffffffffff1673ffffffffffffffffffffffffffffffffffffffff16815260200190815260200160002054111515610c6957600080fd5b601160003373ffffffffffffffffffffffffffffffffffffffff1673ffffffffffffffffffffffffffffffffffffffff1681526020019081526020016000205490503373ffffffffffffffffffffffffffffffffffffffff166108fc829081150290604051600060405180830381858888f193505050501515610ceb57600080fd5b3373ffffffffffffffffffffffffffffffffffffffff167f3367befd2b2f39615cd79917c2153263c4af1d3945ec003e5d5bfc13a8d85833826040518082815260200191505060405180910390a250565b6000809054906101000a900473ffffffffffffffffffffffffffffffffffffffff1673ffffffffffffffffffffffffffffffffffffffff163373ffffffffffffffffffffffffffffffffffffffff16141515610d9757600080fd5b60006005811115610da457fe5b600660009054906101000a900460ff166005811115610dbf57fe5b141515610dcb57600080fd5b6001600660006101000a81548160ff02191690836005811115610dea57fe5b02179055507faa7f66109fc44f83151144a97120f5d50861e58565b5fba86db13d2157273f3760405160405180910390a1565b60008060009054906101000a900473ffffffffffffffffffffffffffffffffffffffff1673ffffffffffffffffffffffffffffffffffffffff163373ffffffffffffffffffffffffffffffffffffffff16141515610e7a57600080fd5b600580811115610e8657fe5b600660009054906101000a900460ff166005811115610ea157fe5b14151515610eae57600080fd5b600160149054906101000a900460ff161515610ec957600080fd5b6000600160146101000a81548160ff0219169083151502179055506000905090565b600a5481565b600b60009054906101000a900473ffffffffffffffffffffffffffffffffffffffff1681565b60045481565b60008060009054906101000a900473ffffffffffffffffffffffffffffffffffffffff1673ffffffffffffffffffffffffffffffffffffffff163373ffffffffffffffffffffffffffffffffffffffff16141515610f7a57600080fd5b600580811115610f8657fe5b600660009054906101000a900460ff166005811115610fa157fe5b14151515610fae57600080fd5b600160149054906101000a900460ff16151515610fca57600080fd5b60018060146101000a81548160ff0219169083151502179055506001905090565b6276a70081565b60055481565b6000806003600581111561100857fe5b600660009054906101000a900460ff16600581111561102357fe5b14151561102f57600080fd5b6000601260003373ffffffffffffffffffffffffffffffffffffffff1673ffffffffffffffffffffffffffffffffffffffff1681526020019081526020016000205411151561107d57600080fd5b601260003373ffffffffffffffffffffffffffffffffffffffff1673ffffffffffffffffffffffffffffffffffffffff16815260200190815260200160002054905080600160009054906101000a900473ffffffffffffffffffffffffffffffffffffffff1673ffffffffffffffffffffffffffffffffffffffff1663233ebc8b33846000604051602001526040518363ffffffff167c0100000000000000000000000000000000000000000000000000000000028152600401808373ffffffffffffffffffffffffffffffffffffffff1673ffffffffffffffffffffffffffffffffffffffff16815260200182815260200192505050602060405180830381600087803b151561118d57600080fd5b6102c65a03f1151561119e57600080fd5b50505060405180519050141561125d576000601260003373ffffffffffffffffffffffffffffffffffffffff1673ffffffffffffffffffffffffffffffffffffffff168152602001908152505061120081600f54611bce90919063ffffffff16565b600f819055503373ffffffffffffffffffffffffffffffffffffffff167f9381e53ffdc9733a6783a6f8665be3f89c231bb81a6771996ed553b4e75c0fe3826040518082815260200191505060405180910390a260019150611262565b600091505b5090565b6000809054906101000a900473ffffffffffffffffffffffffffffffffffffffff1673ffffffffffffffffffffffffffffffffffffffff163373ffffffffffffffffffffffffffffffffffffffff161415156112c157600080fd5b600460058111156112ce57fe5b600660009054906101000a900460ff1660058111156112e957fe5b1415156112f557600080fd5b600b60009054906101000a900473ffffffffffffffffffffffffffffffffffffffff1673ffffffffffffffffffffffffffffffffffffffff166108fc349081150290604051600060405180830381858888f19350505050151561135757600080fd5b600b60009054906101000a900473ffffffffffffffffffffffffffffffffffffffff1673ffffffffffffffffffffffffffffffffffffffff167f9c7a62cfe73695da047aa282ec1c23d9762fc0146fd47bf4e45944ea92d61354346040518082815260200191505060405180910390a2565b6000809054906101000a900473ffffffffffffffffffffffffffffffffffffffff1681565b60075481565b60008060009054906101000a900473ffffffffffffffffffffffffffffffffffffffff1673ffffffffffffffffffffffffffffffffffffffff163373ffffffffffffffffffffffffffffffffffffffff1614151561145157600080fd5b6001600581111561145e57fe5b600660009054906101000a900460ff16600581111561147957fe5b14806114aa57506002600581111561148d57fe5b600660009054906101000a900460ff1660058111156114a857fe5b145b15156114b557600080fd5b600160149054906101000a900460ff1615156114d057600080fd5b82600781905550816008819055507f906edbc0dcccc010f266adf0ed913caf2d85f96833c4a75646acbdac903796598383604051808381526020018281526020019250505060405180910390a16001905092915050565b60085481565b6000809054906101000a900473ffffffffffffffffffffffffffffffffffffffff1673ffffffffffffffffffffffffffffffffffffffff163373ffffffffffffffffffffffffffffffffffffffff1614151561158857600080fd5b6002600581111561159557fe5b600660009054906101000a900460ff1660058111156115b057fe5b1415156115bc57600080fd5b600754600c5410151561161e576003600660006101000a81548160ff021916908360058111156115e857fe5b02179055507fdace2af6783e324ea64e4c038695b8a4b7d2d015430c76a866664d955d2d272960405160405180910390a161169b565b6004600660006101000a81548160ff0219169083600581111561163d57fe5b02179055507f8bb44d3dbf63831cab6a309ac85328faadfb27d69952ce1a28de3412b29c7c0160405160405180910390a17f231f70636de141128d671369860693d802cfa13fc08bdfe06325affd9dd39adf60405160405180910390a15b7fd7cef4325b168389aac657485846e9fb85c4dbd1203dba576b9c43f7f442b78e60405160405180910390a1565b600160149054906101000a900460ff1681565b600660009054906101000a900460ff1681565b6000809054906101000a900473ffffffffffffffffffffffffffffffffffffffff1673ffffffffffffffffffffffffffffffffffffffff163373ffffffffffffffffffffffffffffffffffffffff1614151561174a57600080fd5b6001600581111561175757fe5b600660009054906101000a900460ff16600581111561177257fe5b14151561177e57600080fd5b6002600660006101000a81548160ff0219169083600581111561179d57fe5b0217905550426004819055506117c16276a700600454611bce90919063ffffffff16565b6005819055507ffd12c90a5e51aa8a18eeaafb67ad4e7606ec2db88b5b57077a40c5712cbfb2b760405160405180910390a17f9e106636b514edb5237a49b03d056f3d30478528cf6ecf981c1062485570463060405160405180910390a1565b60035481565b60008060009054906101000a900473ffffffffffffffffffffffffffffffffffffffff1673ffffffffffffffffffffffffffffffffffffffff163373ffffffffffffffffffffffffffffffffffffffff1614151561188457600080fd5b6001600581111561189157fe5b600660009054906101000a900460ff1660058111156118ac57fe5b14806118dd5750600260058111156118c057fe5b600660009054906101000a900460ff1660058111156118db57fe5b145b15156118e857600080fd5b600160149054906101000a900460ff16151561190357600080fd5b8260098190555081600a819055507f6dc35ebeaef368fc0026f2ae0942f1e186de1658f322434d8510aedec5e5ddcb8383604051808381526020018281526020019250505060405180910390a16001905092915050565b60008060009054906101000a900473ffffffffffffffffffffffffffffffffffffffff1673ffffffffffffffffffffffffffffffffffffffff163373ffffffffffffffffffffffffffffffffffffffff161415156119b757600080fd5b600073ffffffffffffffffffffffffffffffffffffffff163373ffffffffffffffffffffffffffffffffffffffff16141515156119f357600080fd5b8173ffffffffffffffffffffffffffffffffffffffff166000809054906101000a900473ffffffffffffffffffffffffffffffffffffffff1673ffffffffffffffffffffffffffffffffffffffff167f97fe53b1ee4516b812fe9a232fb3eb204a92e530e22dac4d8401f8def041380460405160405180910390a3816000806101000a81548173ffffffffffffffffffffffffffffffffffffffff021916908373ffffffffffffffffffffffffffffffffffffffff16021790555060019050919050565b600160009054906101000a900473ffffffffffffffffffffffffffffffffffffffff1681565b6000806000804260025411158015611af757504260035410155b925060016005811115611b0657fe5b600660009054906101000a900460ff166005811115611b2157fe5b149150600854600c54109050828015611b375750815b8015611b405750805b935050505090565b6000806000804260045411158015611b6257504260055410155b925060026005811115611b7157fe5b600660009054906101000a900460ff166005811115611b8c57fe5b149150600854600c54109050828015611ba25750815b8015611bab5750805b935050505090565b6000808284811515611bc157fe5b0490508091505092915050565b6000808284019050838110151515611be557600080fd5b80915050929150505600a165627a7a723058206cffc596a6d2bab032dd694a5935a87e1cd1098e948226de2daf50ebdbe9228d0029",
  "source": "pragma solidity ^0.4.18;\n\nimport \"./Ownable.sol\";\nimport \"./MyMintableToken.sol\";\nimport \"./SafeMath.sol\";\n\n\ncontract MyCrowdSale is Ownable {\n\n\n    using SafeMath for uint256;\n    enum State { NotStarted, PreSale, GeneralSale, Successful, Refund, Closed }\n\n    event TokensPurchase(address indexed _buyer, uint256 _weiAmount, uint256 _numTokens);\n    event TokensCollected(address indexed buyer, uint256 amount);\n    event RefundFundsLoaded(address indexed wallet, uint256 amount);\n    event RefundProcessed(address indexed buyer, uint256 amount);\n    event UpdatedSaleLimits(uint256, uint256);\n    event UpdatedExchangeRates(uint256, uint256);\n    event FundsTransferred(address indexed _wallet, uint256 _weiAmount);\n    event PreSaleOpened();\n    event PreSaleClosed();\n    event GeneralSaleOpened();\n    event GeneralSaleClosed();\n    event CrowdSaleClosed();\n    event FundingTargetReached();\n    event FundingTargetFailed();\n    event RefundingStarted();\n\n// TODO\n//add loadRefund logic. This accepts ETHER from external account in order to process refunds\n\n    MyMintableToken public token;\n    bool public halted;\n    uint256 public preSaleStartTime = 0;\n    uint256 public preSaleEndTime = 0;\n    uint256 public generalSaleStartTime = 0;\n    uint256 public generalSaleEndTime = 0;\n\n    State public state = State.NotStarted;\n    uint256 constant public GENERAL_SALE_DURATION = 90 * 1 days;\n    uint256 constant public PRE_SALE_DURATION = 15 * 1 days;\n    uint256  public minimumFunding = 400000000000000000000;    //1 million tokens = 400 ETHER\n    uint256  public maximumFunding = 47543000000000000000000; // 100 million tokens\n    uint256  public preSaleExchangeRateinWei = 400000000000000; // 1 EPG = 1/2500 ETHER = 476190476190476 wei\n    uint256  public generalSaleExchangeRateinWei = 476190476190476; // 1 EPG = 1/2100 ETHER = 476190476190476 wei\n\n    address public wallet = 0xa6746c27172bc4b23b33f4597cea5f10cc4f65fe; // address where funds will be during the crowdsale is closed\n\n    uint256 internal fundsRaisedInWei = 0; // in wei\n    uint256 internal totalRefundedInWei = 0;\n    uint256 internal tokensIssued = 0;\n    uint256 internal tokensCollected = 0;\n    uint256 internal refundPool = 0;\n\n    mapping (address => uint256) internal investedAmount;\n    mapping (address => uint256) internal allocatedTokens;\n\n    function MyCrowdSale(address _tokenAddress, uint256 _startTime) public {\n        require(_startTime >= now);\n        //require(endTime >= startTime);\n        //require(exchangeRate > 0);\n        require(state == State.NotStarted);\n        token = MyMintableToken(_tokenAddress);\n        preSaleStartTime = _startTime;\n        preSaleEndTime = preSaleStartTime.add(PRE_SALE_DURATION);\n        halted = false;\n        state = State.NotStarted;\n        //tokenContractOwner = _tokenContractOwner;\n        //token = new MyMintableToken();\n    }\n\n    function() external payable {\n        buyTokens(msg.sender, msg.value);\n    }\n\n    function haltSale()  public  onlyOwner returns(bool) {\n        require(state != State.Closed);\n        require(!halted);\n        halted = true;\n        return true;\n    }\n\n    function resumeSale()  public onlyOwner returns(bool) {\n        require(state != State.Closed);\n        require(halted);\n        halted = false;\n        return false;\n    }\n\n    function openPreSale() public onlyOwner {\n        require(state == State.NotStarted);\n        state = State.PreSale;\n        PreSaleOpened();\n    }\n\n    // close pre-sale and open general sale\n    function closePreSale() public onlyOwner {\n        require(state == State.PreSale);\n        state = State.GeneralSale;\n        generalSaleStartTime = now;\n        generalSaleEndTime = generalSaleStartTime.add(GENERAL_SALE_DURATION);\n        PreSaleClosed();\n        GeneralSaleOpened();\n    }\n\n    function closeGeneralSale() public onlyOwner {\n        require(state == State.GeneralSale);\n        //require(fundsRaised == 0); // can only close funding after tokens are moved\n        if (fundsRaisedInWei >= minimumFunding) {\n            state = State.Successful;\n            FundingTargetReached();\n        } else {\n            state = State.Refund;\n            FundingTargetFailed();\n            RefundingStarted();\n        }\n        GeneralSaleClosed();\n    }\n\n    function closeCrowdSale() public onlyOwner {\n        //require(fundsRaisedInWei == totalRefundedInWei); // can only close funding after tokens are collected\n        require(state == State.Successful || state == State.Refund);\n        if (state == State.Successful) {\n            require(fundsRaisedInWei == 0); //sale can only be closed after all the funds are transferred.\n            require(tokensCollected == tokensIssued);\n        }\n        if (state == State.Refund) {\n            require(fundsRaisedInWei == totalRefundedInWei); // all funds have been returned\n            require(tokensCollected == 0);\n        }\n        state == State.Closed;\n        CrowdSaleClosed();\n    }\n\n    function updateSaleLimits(uint256 _softcap, uint256 _hardcap) public onlyOwner returns(bool) {\n        require(state == State.PreSale || state == State.GeneralSale);\n        require(halted);\n        minimumFunding = _softcap;\n        maximumFunding = _hardcap;\n        UpdatedSaleLimits(_softcap, _hardcap);\n        return true;\n    }\n\n    function updateExchangeRates(uint256 preSaleXRATE, uint256 generalSaleXRATE) public onlyOwner returns(bool) {\n        require(state == State.PreSale || state == State.GeneralSale);\n        require(halted);\n        preSaleExchangeRateinWei = preSaleXRATE;\n        generalSaleExchangeRateinWei = generalSaleXRATE;\n        UpdatedExchangeRates(preSaleXRATE, generalSaleXRATE);\n        return true;\n    }\n\n    function collectTokens() public returns(bool) {\n        require(state == State.Successful);\n        require(allocatedTokens[msg.sender] > 0);\n        uint256 amount = allocatedTokens[msg.sender];\n        if (token.minting(msg.sender, amount) == amount) {\n            allocatedTokens[msg.sender] == 0;\n            tokensCollected = tokensCollected.add(amount);\n            TokensCollected(msg.sender, amount);\n            return true;\n        } else {\n            return false;\n        }\n    }\n\n    function loadRefund() public onlyOwner payable {\n        require(state == State.Refund);\n        wallet.transfer(msg.value);\n        RefundFundsLoaded(wallet, msg.value);\n    }\n\n    function collectRefund() public payable {\n        require(state == State.Refund);\n        require(investedAmount[msg.sender] > 0);\n        uint256 refundAmountInWei = investedAmount[msg.sender];\n        (msg.sender).transfer(refundAmountInWei);\n        RefundProcessed(msg.sender, refundAmountInWei);\n    }\n\n    function buyTokens(address buyer, uint256 weiAmount) public payable {\n        require(checkPreSaleOn() || checkGeneralSaleOn());\n        require(!halted);\n        require(buyer != address(0));\n        require(weiAmount > 0);\n        require(weiAmount % 1 ether == 0); // only integer numbers\n        uint256 numTokens;\n\n        if (state == State.PreSale) {\n            require(weiAmount <= 20000000000000000000); // max 20 ETHER\n            numTokens = weiAmount.div(preSaleExchangeRateinWei);\n        }\n        if (state == State.GeneralSale) {\n            require(weiAmount <= 20000000000000000000); // max 20 ETHER\n            numTokens = weiAmount.div(generalSaleExchangeRateinWei);\n        }\n\n        investedAmount[buyer] = investedAmount[buyer].add(weiAmount);\n        fundsRaisedInWei = fundsRaisedInWei.add(weiAmount);\n\n        tokensIssued = tokensIssued.add(numTokens);\n        allocatedTokens[buyer] = allocatedTokens[buyer].add(numTokens);\n        TokensPurchase(buyer, weiAmount, numTokens);\n\n        if (fundsRaisedInWei + weiAmount >= maximumFunding) {\n            closePreSale();\n            closeGeneralSale();\n        }\n\n        wallet.transfer(weiAmount);\n    }\n\n    function checkPreSaleOn() internal view returns(bool) {\n        bool saleOn = (preSaleStartTime <= now && preSaleEndTime >= now);\n        bool stateOK = (state == State.PreSale);\n        bool capNotReached = (fundsRaisedInWei < maximumFunding);\n        return saleOn && stateOK && capNotReached;\n    }\n\n    function checkGeneralSaleOn() internal view returns(bool) {\n        bool saleOn = (generalSaleStartTime <= now && generalSaleEndTime >= now);\n        bool stateOK = (state == State.GeneralSale);\n        bool capNotReached = (fundsRaisedInWei < maximumFunding);\n        return saleOn && stateOK && capNotReached;\n    }\n\n\n\n}\n",
  "sourcePath": "/media/psf/solidity/MyERC/contracts/MyCrowdSale.sol",
  "compiler": {
    "name": "solc",
    "version": "0.4.18+commit.9cf6e910.Emscripten.clang"
  },
  "schemaVersion": "1.0.1",
  "updatedAt": "2018-02-25T20:47:21.857Z"
}