{
  "contractName": "MyCrowdSaleV2",
  "abi": [
    {
      "constant": true,
      "inputs": [],
      "name": "refundPool",
      "outputs": [
        {
          "name": "",
          "type": "uint256"
        }
      ],
      "payable": false,
      "stateMutability": "view",
      "type": "function"
    },
    {
      "constant": true,
      "inputs": [],
      "name": "preSaleStartTime",
      "outputs": [
        {
          "name": "",
          "type": "uint256"
        }
      ],
      "payable": false,
      "stateMutability": "view",
      "type": "function"
    },
    {
      "constant": false,
      "inputs": [],
      "name": "closeCrowdSale",
      "outputs": [],
      "payable": false,
      "stateMutability": "nonpayable",
      "type": "function"
    },
    {
      "constant": true,
      "inputs": [
        {
          "name": "",
          "type": "address"
        }
      ],
      "name": "allocatedTokens",
      "outputs": [
        {
          "name": "",
          "type": "uint256"
        }
      ],
      "payable": false,
      "stateMutability": "view",
      "type": "function"
    },
    {
      "constant": true,
      "inputs": [],
      "name": "preSaleExchangeRateinWei",
      "outputs": [
        {
          "name": "",
          "type": "uint256"
        }
      ],
      "payable": false,
      "stateMutability": "view",
      "type": "function"
    },
    {
      "constant": true,
      "inputs": [],
      "name": "PRE_SALE_DURATION",
      "outputs": [
        {
          "name": "",
          "type": "uint256"
        }
      ],
      "payable": false,
      "stateMutability": "view",
      "type": "function"
    },
    {
      "constant": false,
      "inputs": [],
      "name": "collectRefund",
      "outputs": [],
      "payable": false,
      "stateMutability": "nonpayable",
      "type": "function"
    },
    {
      "constant": true,
      "inputs": [],
      "name": "totalRefundedInWei",
      "outputs": [
        {
          "name": "",
          "type": "uint256"
        }
      ],
      "payable": false,
      "stateMutability": "view",
      "type": "function"
    },
    {
      "constant": false,
      "inputs": [],
      "name": "openPreSale",
      "outputs": [],
      "payable": false,
      "stateMutability": "nonpayable",
      "type": "function"
    },
    {
      "constant": false,
      "inputs": [],
      "name": "resumeSale",
      "outputs": [
        {
          "name": "",
          "type": "bool"
        }
      ],
      "payable": false,
      "stateMutability": "nonpayable",
      "type": "function"
    },
    {
      "constant": true,
      "inputs": [],
      "name": "generalSaleExchangeRateinWei",
      "outputs": [
        {
          "name": "",
          "type": "uint256"
        }
      ],
      "payable": false,
      "stateMutability": "view",
      "type": "function"
    },
    {
      "constant": true,
      "inputs": [],
      "name": "wallet",
      "outputs": [
        {
          "name": "",
          "type": "address"
        }
      ],
      "payable": false,
      "stateMutability": "view",
      "type": "function"
    },
    {
      "constant": true,
      "inputs": [],
      "name": "generalSaleStartTime",
      "outputs": [
        {
          "name": "",
          "type": "uint256"
        }
      ],
      "payable": false,
      "stateMutability": "view",
      "type": "function"
    },
    {
      "constant": false,
      "inputs": [],
      "name": "haltSale",
      "outputs": [
        {
          "name": "",
          "type": "bool"
        }
      ],
      "payable": false,
      "stateMutability": "nonpayable",
      "type": "function"
    },
    {
      "constant": true,
      "inputs": [],
      "name": "GENERAL_SALE_DURATION",
      "outputs": [
        {
          "name": "",
          "type": "uint256"
        }
      ],
      "payable": false,
      "stateMutability": "view",
      "type": "function"
    },
    {
      "constant": true,
      "inputs": [],
      "name": "tokensCollected",
      "outputs": [
        {
          "name": "",
          "type": "uint256"
        }
      ],
      "payable": false,
      "stateMutability": "view",
      "type": "function"
    },
    {
      "constant": true,
      "inputs": [],
      "name": "generalSaleEndTime",
      "outputs": [
        {
          "name": "",
          "type": "uint256"
        }
      ],
      "payable": false,
      "stateMutability": "view",
      "type": "function"
    },
    {
      "constant": true,
      "inputs": [],
      "name": "tokensIssued",
      "outputs": [
        {
          "name": "",
          "type": "uint256"
        }
      ],
      "payable": false,
      "stateMutability": "view",
      "type": "function"
    },
    {
      "constant": false,
      "inputs": [],
      "name": "collectTokens",
      "outputs": [
        {
          "name": "",
          "type": "bool"
        }
      ],
      "payable": false,
      "stateMutability": "nonpayable",
      "type": "function"
    },
    {
      "constant": false,
      "inputs": [],
      "name": "loadRefund",
      "outputs": [],
      "payable": true,
      "stateMutability": "payable",
      "type": "function"
    },
    {
      "constant": true,
      "inputs": [],
      "name": "owner",
      "outputs": [
        {
          "name": "",
          "type": "address"
        }
      ],
      "payable": false,
      "stateMutability": "view",
      "type": "function"
    },
    {
      "constant": true,
      "inputs": [],
      "name": "minimumFunding",
      "outputs": [
        {
          "name": "",
          "type": "uint256"
        }
      ],
      "payable": false,
      "stateMutability": "view",
      "type": "function"
    },
    {
      "constant": true,
      "inputs": [],
      "name": "fundsRaisedInWei",
      "outputs": [
        {
          "name": "",
          "type": "uint256"
        }
      ],
      "payable": false,
      "stateMutability": "view",
      "type": "function"
    },
    {
      "constant": false,
      "inputs": [
        {
          "name": "_softcap",
          "type": "uint256"
        },
        {
          "name": "_hardcap",
          "type": "uint256"
        }
      ],
      "name": "updateSaleLimits",
      "outputs": [
        {
          "name": "",
          "type": "bool"
        }
      ],
      "payable": false,
      "stateMutability": "nonpayable",
      "type": "function"
    },
    {
      "constant": true,
      "inputs": [],
      "name": "maximumFunding",
      "outputs": [
        {
          "name": "",
          "type": "uint256"
        }
      ],
      "payable": false,
      "stateMutability": "view",
      "type": "function"
    },
    {
      "constant": false,
      "inputs": [],
      "name": "closeGeneralSale",
      "outputs": [],
      "payable": false,
      "stateMutability": "nonpayable",
      "type": "function"
    },
    {
      "constant": true,
      "inputs": [],
      "name": "halted",
      "outputs": [
        {
          "name": "",
          "type": "bool"
        }
      ],
      "payable": false,
      "stateMutability": "view",
      "type": "function"
    },
    {
      "constant": true,
      "inputs": [],
      "name": "state",
      "outputs": [
        {
          "name": "",
          "type": "uint8"
        }
      ],
      "payable": false,
      "stateMutability": "view",
      "type": "function"
    },
    {
      "constant": false,
      "inputs": [],
      "name": "closePreSale",
      "outputs": [],
      "payable": false,
      "stateMutability": "nonpayable",
      "type": "function"
    },
    {
      "constant": true,
      "inputs": [],
      "name": "preSaleEndTime",
      "outputs": [
        {
          "name": "",
          "type": "uint256"
        }
      ],
      "payable": false,
      "stateMutability": "view",
      "type": "function"
    },
    {
      "constant": true,
      "inputs": [
        {
          "name": "",
          "type": "address"
        }
      ],
      "name": "investedAmount",
      "outputs": [
        {
          "name": "",
          "type": "uint256"
        }
      ],
      "payable": false,
      "stateMutability": "view",
      "type": "function"
    },
    {
      "constant": false,
      "inputs": [
        {
          "name": "preSaleXRATE",
          "type": "uint256"
        },
        {
          "name": "generalSaleXRATE",
          "type": "uint256"
        }
      ],
      "name": "updateExchangeRates",
      "outputs": [
        {
          "name": "",
          "type": "bool"
        }
      ],
      "payable": false,
      "stateMutability": "nonpayable",
      "type": "function"
    },
    {
      "constant": false,
      "inputs": [
        {
          "name": "newOwner",
          "type": "address"
        }
      ],
      "name": "transferOwnership",
      "outputs": [
        {
          "name": "",
          "type": "bool"
        }
      ],
      "payable": false,
      "stateMutability": "nonpayable",
      "type": "function"
    },
    {
      "constant": true,
      "inputs": [],
      "name": "token",
      "outputs": [
        {
          "name": "",
          "type": "address"
        }
      ],
      "payable": false,
      "stateMutability": "view",
      "type": "function"
    },
    {
      "inputs": [
        {
          "name": "_tokenAddress",
          "type": "address"
        },
        {
          "name": "_startTime",
          "type": "uint256"
        }
      ],
      "payable": false,
      "stateMutability": "nonpayable",
      "type": "constructor"
    },
    {
      "payable": true,
      "stateMutability": "payable",
      "type": "fallback"
    },
    {
      "anonymous": false,
      "inputs": [
        {
          "indexed": true,
          "name": "_buyer",
          "type": "address"
        },
        {
          "indexed": false,
          "name": "_weiAmount",
          "type": "uint256"
        },
        {
          "indexed": false,
          "name": "_numTokens",
          "type": "uint256"
        }
      ],
      "name": "TokensPurchase",
      "type": "event"
    },
    {
      "anonymous": false,
      "inputs": [
        {
          "indexed": true,
          "name": "buyer",
          "type": "address"
        },
        {
          "indexed": false,
          "name": "amount",
          "type": "uint256"
        }
      ],
      "name": "TokensCollected",
      "type": "event"
    },
    {
      "anonymous": false,
      "inputs": [
        {
          "indexed": true,
          "name": "wallet",
          "type": "address"
        },
        {
          "indexed": false,
          "name": "amount",
          "type": "uint256"
        }
      ],
      "name": "RefundFundsLoaded",
      "type": "event"
    },
    {
      "anonymous": false,
      "inputs": [
        {
          "indexed": true,
          "name": "buyer",
          "type": "address"
        },
        {
          "indexed": false,
          "name": "amount",
          "type": "uint256"
        }
      ],
      "name": "RefundProcessed",
      "type": "event"
    },
    {
      "anonymous": false,
      "inputs": [
        {
          "indexed": false,
          "name": "",
          "type": "uint256"
        },
        {
          "indexed": false,
          "name": "",
          "type": "uint256"
        }
      ],
      "name": "UpdatedSaleLimits",
      "type": "event"
    },
    {
      "anonymous": false,
      "inputs": [
        {
          "indexed": false,
          "name": "",
          "type": "uint256"
        },
        {
          "indexed": false,
          "name": "",
          "type": "uint256"
        }
      ],
      "name": "UpdatedExchangeRates",
      "type": "event"
    },
    {
      "anonymous": false,
      "inputs": [
        {
          "indexed": true,
          "name": "_wallet",
          "type": "address"
        },
        {
          "indexed": false,
          "name": "_weiAmount",
          "type": "uint256"
        }
      ],
      "name": "FundsTransferred",
      "type": "event"
    },
    {
      "anonymous": false,
      "inputs": [],
      "name": "PreSaleOpened",
      "type": "event"
    },
    {
      "anonymous": false,
      "inputs": [],
      "name": "PreSaleClosed",
      "type": "event"
    },
    {
      "anonymous": false,
      "inputs": [],
      "name": "GeneralSaleOpened",
      "type": "event"
    },
    {
      "anonymous": false,
      "inputs": [],
      "name": "GeneralSaleClosed",
      "type": "event"
    },
    {
      "anonymous": false,
      "inputs": [],
      "name": "CrowdSaleClosed",
      "type": "event"
    },
    {
      "anonymous": false,
      "inputs": [],
      "name": "FundingTargetReached",
      "type": "event"
    },
    {
      "anonymous": false,
      "inputs": [],
      "name": "FundingTargetFailed",
      "type": "event"
    },
    {
      "anonymous": false,
      "inputs": [],
      "name": "RefundingStarted",
      "type": "event"
    },
    {
      "anonymous": false,
      "inputs": [
        {
          "indexed": true,
          "name": "previousOwner",
          "type": "address"
        },
        {
          "indexed": true,
          "name": "newOwner",
          "type": "address"
        }
      ],
      "name": "EventOwnershipTransferred",
      "type": "event"
    }
  ],
  "bytecode": "0x606060405260006002556000600355600060045560006005556000600660006101000a81548160ff021916908360058111156200003857fe5b02179055506815af1d78b58c400000600755690a114faa6e63ec7c000060085566016bcc41e900006009556601b117bc2dc30c600a55732406e113bb4e729629cc9339934e29532eb8528d600b60006101000a81548173ffffffffffffffffffffffffffffffffffffffff021916908373ffffffffffffffffffffffffffffffffffffffff1602179055506000600c556000600d556000600e556000600f5560006010553415620000e857600080fd5b6040516040806200207883398101604052808051906020019091908051906020019091905050336000806101000a81548173ffffffffffffffffffffffffffffffffffffffff021916908373ffffffffffffffffffffffffffffffffffffffff1602179055504281101515156200015e57600080fd5b600060058111156200016c57fe5b600660009054906101000a900460ff1660058111156200018857fe5b1415156200019557600080fd5b81600160006101000a81548173ffffffffffffffffffffffffffffffffffffffff021916908373ffffffffffffffffffffffffffffffffffffffff16021790555080600281905550620002056213c6806002546200022e6401000000000262001dcb179091906401000000009004565b6003819055506000600160146101000a81548160ff021916908315150217905550505062000250565b60008082840190508381101515156200024657600080fd5b8091505092915050565b611e1880620002606000396000f3006060604052600436106101ac576000357c0100000000000000000000000000000000000000000000000000000000900463ffffffff168063058d1097146101b857806306d65af3146101e157806307537ad41461020a5780631b20d9cb1461021f57806323dd07851461026c57806323f9d5891461029557806326ce3da0146102be578063335b801d146102d357806333bffccc146102fc57806333e364cb1461031157806347c196441461033e578063521eb273146103675780635e2a3e90146103bc5780635fbaa390146103e557806376499e5914610412578063787c21e21461043b57806379194b86146104645780637c48bbda1461048d5780638433acd1146104b657806387612102146104e35780638da5cb5b146104ed5780638dda546214610542578063949eabff1461056b57806395b0efb71461059457806399d64ab0146105d8578063b0eb516214610601578063b9b8af0b14610616578063c19d93fb14610643578063c1cd1d591461067a578063cce29ea71461068f578063cff77444146106b8578063db6c709c14610705578063f2fde38b14610749578063fc0c546a1461079a575b6101b633346107ef565b005b34156101c357600080fd5b6101cb610b95565b6040518082815260200191505060405180910390f35b34156101ec57600080fd5b6101f4610b9b565b6040518082815260200191505060405180910390f35b341561021557600080fd5b61021d610ba1565b005b341561022a57600080fd5b610256600480803573ffffffffffffffffffffffffffffffffffffffff16906020019091905050610d5b565b6040518082815260200191505060405180910390f35b341561027757600080fd5b61027f610d73565b6040518082815260200191505060405180910390f35b34156102a057600080fd5b6102a8610d79565b6040518082815260200191505060405180910390f35b34156102c957600080fd5b6102d1610d80565b005b34156102de57600080fd5b6102e6610f7c565b6040518082815260200191505060405180910390f35b341561030757600080fd5b61030f610f82565b005b341561031c57600080fd5b610324611063565b604051808215151515815260200191505060405180910390f35b341561034957600080fd5b610351611131565b6040518082815260200191505060405180910390f35b341561037257600080fd5b61037a611137565b604051808273ffffffffffffffffffffffffffffffffffffffff1673ffffffffffffffffffffffffffffffffffffffff16815260200191505060405180910390f35b34156103c757600080fd5b6103cf61115d565b6040518082815260200191505060405180910390f35b34156103f057600080fd5b6103f8611163565b604051808215151515815260200191505060405180910390f35b341561041d57600080fd5b610425611231565b6040518082815260200191505060405180910390f35b341561044657600080fd5b61044e611238565b6040518082815260200191505060405180910390f35b341561046f57600080fd5b61047761123e565b6040518082815260200191505060405180910390f35b341561049857600080fd5b6104a0611244565b6040518082815260200191505060405180910390f35b34156104c157600080fd5b6104c961124a565b604051808215151515815260200191505060405180910390f35b6104eb6114b8565b005b34156104f857600080fd5b6105006115a8565b604051808273ffffffffffffffffffffffffffffffffffffffff1673ffffffffffffffffffffffffffffffffffffffff16815260200191505060405180910390f35b341561054d57600080fd5b6105556115cd565b6040518082815260200191505060405180910390f35b341561057657600080fd5b61057e6115d3565b6040518082815260200191505060405180910390f35b341561059f57600080fd5b6105be60048080359060200190919080359060200190919050506115d9565b604051808215151515815260200191505060405180910390f35b34156105e357600080fd5b6105eb61170c565b6040518082815260200191505060405180910390f35b341561060c57600080fd5b610614611712565b005b341561062157600080fd5b6106296118ae565b604051808215151515815260200191505060405180910390f35b341561064e57600080fd5b6106566118c1565b6040518082600581111561066657fe5b60ff16815260200191505060405180910390f35b341561068557600080fd5b61068d6118d4565b005b341561069a57600080fd5b6106a2611a06565b6040518082815260200191505060405180910390f35b34156106c357600080fd5b6106ef600480803573ffffffffffffffffffffffffffffffffffffffff16906020019091905050611a0c565b6040518082815260200191505060405180910390f35b341561071057600080fd5b61072f6004808035906020019091908035906020019091905050611a24565b604051808215151515815260200191505060405180910390f35b341561075457600080fd5b610780600480803573ffffffffffffffffffffffffffffffffffffffff16906020019091905050611b57565b604051808215151515815260200191505060405180910390f35b34156107a557600080fd5b6107ad611cb4565b604051808273ffffffffffffffffffffffffffffffffffffffff1673ffffffffffffffffffffffffffffffffffffffff16815260200191505060405180910390f35b60006107f9611cda565b806108085750610807611d45565b5b151561081357600080fd5b600160149054906101000a900460ff1615151561082f57600080fd5b600073ffffffffffffffffffffffffffffffffffffffff168373ffffffffffffffffffffffffffffffffffffffff161415151561086b57600080fd5b60008211151561087a57600080fd5b6000670de0b6b3a76400008381151561088f57fe5b0614151561089c57600080fd5b600160058111156108a957fe5b600660009054906101000a900460ff1660058111156108c457fe5b14156108fa576801158e460913d0000082111515156108e257600080fd5b6108f760095483611db090919063ffffffff16565b90505b6002600581111561090757fe5b600660009054906101000a900460ff16600581111561092257fe5b1415610958576801158e460913d00000821115151561094057600080fd5b610955600a5483611db090919063ffffffff16565b90505b6109aa82601160008673ffffffffffffffffffffffffffffffffffffffff1673ffffffffffffffffffffffffffffffffffffffff16815260200190815260200160002054611dcb90919063ffffffff16565b601160008573ffffffffffffffffffffffffffffffffffffffff1673ffffffffffffffffffffffffffffffffffffffff16815260200190815260200160002081905550610a0282600c54611dcb90919063ffffffff16565b600c81905550610a5a81601260008673ffffffffffffffffffffffffffffffffffffffff1673ffffffffffffffffffffffffffffffffffffffff16815260200190815260200160002054611dcb90919063ffffffff16565b601260008573ffffffffffffffffffffffffffffffffffffffff1673ffffffffffffffffffffffffffffffffffffffff16815260200190815260200160002081905550610ab281600e54611dcb90919063ffffffff16565b600e819055508273ffffffffffffffffffffffffffffffffffffffff167f0ea049b6211f0c101a21283dc7693e84cfb30c6e2a76b09891f78163929cb5488383604051808381526020018281526020019250505060405180910390a260085482600c5401101515610b2e57610b256118d4565b610b2d611712565b5b600b60009054906101000a900473ffffffffffffffffffffffffffffffffffffffff1673ffffffffffffffffffffffffffffffffffffffff166108fc839081150290604051600060405180830381858888f193505050501515610b9057600080fd5b505050565b60105481565b60025481565b6000809054906101000a900473ffffffffffffffffffffffffffffffffffffffff1673ffffffffffffffffffffffffffffffffffffffff163373ffffffffffffffffffffffffffffffffffffffff16141515610bfc57600080fd5b60036005811115610c0957fe5b600660009054906101000a900460ff166005811115610c2457fe5b1480610c55575060046005811115610c3857fe5b600660009054906101000a900460ff166005811115610c5357fe5b145b1515610c6057600080fd5b60036005811115610c6d57fe5b600660009054906101000a900460ff166005811115610c8857fe5b1415610cb2576000600c54141515610c9f57600080fd5b600e54600f54141515610cb157600080fd5b5b60046005811115610cbf57fe5b600660009054906101000a900460ff166005811115610cda57fe5b1415610d0457600d54600c54141515610cf257600080fd5b6000600f54141515610d0357600080fd5b5b600580811115610d1057fe5b600660009054906101000a900460ff166005811115610d2b57fe5b50507fe298cafc920b147a0a0cb98c059bf17e0430e7ea9fa1ae202c4f6f55f4a808ec60405160405180910390a1565b60126020528060005260406000206000915090505481565b60095481565b6213c68081565b600060046005811115610d8f57fe5b600660009054906101000a900460ff166005811115610daa57fe5b141515610db657600080fd5b6000601160003373ffffffffffffffffffffffffffffffffffffffff1673ffffffffffffffffffffffffffffffffffffffff16815260200190815260200160002054111515610e0457600080fd5b601160003373ffffffffffffffffffffffffffffffffffffffff1673ffffffffffffffffffffffffffffffffffffffff168152602001908152602001600020549050610e5b81600d54611dcb90919063ffffffff16565b600d819055506000601160003373ffffffffffffffffffffffffffffffffffffffff1673ffffffffffffffffffffffffffffffffffffffff168152602001908152602001600020819055506000601260003373ffffffffffffffffffffffffffffffffffffffff1673ffffffffffffffffffffffffffffffffffffffff168152602001908152602001600020819055503373ffffffffffffffffffffffffffffffffffffffff166108fc829081150290604051600060405180830381858888f193505050501515610f2b57600080fd5b3373ffffffffffffffffffffffffffffffffffffffff167f3367befd2b2f39615cd79917c2153263c4af1d3945ec003e5d5bfc13a8d85833826040518082815260200191505060405180910390a250565b600d5481565b6000809054906101000a900473ffffffffffffffffffffffffffffffffffffffff1673ffffffffffffffffffffffffffffffffffffffff163373ffffffffffffffffffffffffffffffffffffffff16141515610fdd57600080fd5b60006005811115610fea57fe5b600660009054906101000a900460ff16600581111561100557fe5b14151561101157600080fd5b6001600660006101000a81548160ff0219169083600581111561103057fe5b02179055507faa7f66109fc44f83151144a97120f5d50861e58565b5fba86db13d2157273f3760405160405180910390a1565b60008060009054906101000a900473ffffffffffffffffffffffffffffffffffffffff1673ffffffffffffffffffffffffffffffffffffffff163373ffffffffffffffffffffffffffffffffffffffff161415156110c057600080fd5b6005808111156110cc57fe5b600660009054906101000a900460ff1660058111156110e757fe5b141515156110f457600080fd5b600160149054906101000a900460ff16151561110f57600080fd5b6000600160146101000a81548160ff0219169083151502179055506001905090565b600a5481565b600b60009054906101000a900473ffffffffffffffffffffffffffffffffffffffff1681565b60045481565b60008060009054906101000a900473ffffffffffffffffffffffffffffffffffffffff1673ffffffffffffffffffffffffffffffffffffffff163373ffffffffffffffffffffffffffffffffffffffff161415156111c057600080fd5b6005808111156111cc57fe5b600660009054906101000a900460ff1660058111156111e757fe5b141515156111f457600080fd5b600160149054906101000a900460ff1615151561121057600080fd5b60018060146101000a81548160ff0219169083151502179055506001905090565b6276a70081565b600f5481565b60055481565b600e5481565b6000806003600581111561125a57fe5b600660009054906101000a900460ff16600581111561127557fe5b14151561128157600080fd5b6000601260003373ffffffffffffffffffffffffffffffffffffffff1673ffffffffffffffffffffffffffffffffffffffff168152602001908152602001600020541115156112cf57600080fd5b601260003373ffffffffffffffffffffffffffffffffffffffff1673ffffffffffffffffffffffffffffffffffffffff16815260200190815260200160002054905080600160009054906101000a900473ffffffffffffffffffffffffffffffffffffffff1673ffffffffffffffffffffffffffffffffffffffff1663233ebc8b33846000604051602001526040518363ffffffff167c0100000000000000000000000000000000000000000000000000000000028152600401808373ffffffffffffffffffffffffffffffffffffffff1673ffffffffffffffffffffffffffffffffffffffff16815260200182815260200192505050602060405180830381600087803b15156113df57600080fd5b6102c65a03f115156113f057600080fd5b5050506040518051905014156114af576000601260003373ffffffffffffffffffffffffffffffffffffffff1673ffffffffffffffffffffffffffffffffffffffff168152602001908152505061145281600f54611dcb90919063ffffffff16565b600f819055503373ffffffffffffffffffffffffffffffffffffffff167f9381e53ffdc9733a6783a6f8665be3f89c231bb81a6771996ed553b4e75c0fe3826040518082815260200191505060405180910390a2600191506114b4565b600091505b5090565b600460058111156114c557fe5b600660009054906101000a900460ff1660058111156114e057fe5b1415156114ec57600080fd5b600b60009054906101000a900473ffffffffffffffffffffffffffffffffffffffff1673ffffffffffffffffffffffffffffffffffffffff163373ffffffffffffffffffffffffffffffffffffffff1614151561154857600080fd5b600c543414151561155857600080fd5b3373ffffffffffffffffffffffffffffffffffffffff167f9c7a62cfe73695da047aa282ec1c23d9762fc0146fd47bf4e45944ea92d61354346040518082815260200191505060405180910390a2565b6000809054906101000a900473ffffffffffffffffffffffffffffffffffffffff1681565b60075481565b600c5481565b60008060009054906101000a900473ffffffffffffffffffffffffffffffffffffffff1673ffffffffffffffffffffffffffffffffffffffff163373ffffffffffffffffffffffffffffffffffffffff1614151561163657600080fd5b6001600581111561164357fe5b600660009054906101000a900460ff16600581111561165e57fe5b148061168f57506002600581111561167257fe5b600660009054906101000a900460ff16600581111561168d57fe5b145b151561169a57600080fd5b600160149054906101000a900460ff1615156116b557600080fd5b82600781905550816008819055507f906edbc0dcccc010f266adf0ed913caf2d85f96833c4a75646acbdac903796598383604051808381526020018281526020019250505060405180910390a16001905092915050565b60085481565b6000809054906101000a900473ffffffffffffffffffffffffffffffffffffffff1673ffffffffffffffffffffffffffffffffffffffff163373ffffffffffffffffffffffffffffffffffffffff1614151561176d57600080fd5b6002600581111561177a57fe5b600660009054906101000a900460ff16600581111561179557fe5b1415156117a157600080fd5b600754600c54101515611803576003600660006101000a81548160ff021916908360058111156117cd57fe5b02179055507fdace2af6783e324ea64e4c038695b8a4b7d2d015430c76a866664d955d2d272960405160405180910390a1611880565b6004600660006101000a81548160ff0219169083600581111561182257fe5b02179055507f8bb44d3dbf63831cab6a309ac85328faadfb27d69952ce1a28de3412b29c7c0160405160405180910390a17f231f70636de141128d671369860693d802cfa13fc08bdfe06325affd9dd39adf60405160405180910390a15b7fd7cef4325b168389aac657485846e9fb85c4dbd1203dba576b9c43f7f442b78e60405160405180910390a1565b600160149054906101000a900460ff1681565b600660009054906101000a900460ff1681565b6000809054906101000a900473ffffffffffffffffffffffffffffffffffffffff1673ffffffffffffffffffffffffffffffffffffffff163373ffffffffffffffffffffffffffffffffffffffff1614151561192f57600080fd5b6001600581111561193c57fe5b600660009054906101000a900460ff16600581111561195757fe5b14151561196357600080fd5b6002600660006101000a81548160ff0219169083600581111561198257fe5b0217905550426004819055506119a66276a700600454611dcb90919063ffffffff16565b6005819055507ffd12c90a5e51aa8a18eeaafb67ad4e7606ec2db88b5b57077a40c5712cbfb2b760405160405180910390a17f9e106636b514edb5237a49b03d056f3d30478528cf6ecf981c1062485570463060405160405180910390a1565b60035481565b60116020528060005260406000206000915090505481565b60008060009054906101000a900473ffffffffffffffffffffffffffffffffffffffff1673ffffffffffffffffffffffffffffffffffffffff163373ffffffffffffffffffffffffffffffffffffffff16141515611a8157600080fd5b60016005811115611a8e57fe5b600660009054906101000a900460ff166005811115611aa957fe5b1480611ada575060026005811115611abd57fe5b600660009054906101000a900460ff166005811115611ad857fe5b145b1515611ae557600080fd5b600160149054906101000a900460ff161515611b0057600080fd5b8260098190555081600a819055507f6dc35ebeaef368fc0026f2ae0942f1e186de1658f322434d8510aedec5e5ddcb8383604051808381526020018281526020019250505060405180910390a16001905092915050565b60008060009054906101000a900473ffffffffffffffffffffffffffffffffffffffff1673ffffffffffffffffffffffffffffffffffffffff163373ffffffffffffffffffffffffffffffffffffffff16141515611bb457600080fd5b600073ffffffffffffffffffffffffffffffffffffffff163373ffffffffffffffffffffffffffffffffffffffff1614151515611bf057600080fd5b8173ffffffffffffffffffffffffffffffffffffffff166000809054906101000a900473ffffffffffffffffffffffffffffffffffffffff1673ffffffffffffffffffffffffffffffffffffffff167f97fe53b1ee4516b812fe9a232fb3eb204a92e530e22dac4d8401f8def041380460405160405180910390a3816000806101000a81548173ffffffffffffffffffffffffffffffffffffffff021916908373ffffffffffffffffffffffffffffffffffffffff16021790555060019050919050565b600160009054906101000a900473ffffffffffffffffffffffffffffffffffffffff1681565b6000806000804260025411158015611cf457504260035410155b925060016005811115611d0357fe5b600660009054906101000a900460ff166005811115611d1e57fe5b149150600854600c54109050828015611d345750815b8015611d3d5750805b935050505090565b6000806000804260045411158015611d5f57504260055410155b925060026005811115611d6e57fe5b600660009054906101000a900460ff166005811115611d8957fe5b149150600854600c54109050828015611d9f5750815b8015611da85750805b935050505090565b6000808284811515611dbe57fe5b0490508091505092915050565b6000808284019050838110151515611de257600080fd5b80915050929150505600a165627a7a72305820e44117611910d01f9fd92e1f1b6b91ea3bd35a7f5fd800092676969d535174e40029",
  "source": "pragma solidity ^0.4.18;\n\nimport \"./Ownable.sol\";\n//import \"./MyMintableToken.sol\";\nimport \"./SafeMath.sol\";\n\n\ncontract MyMintableToken {\n    function minting(address _receiver, uint256 _amount)  public returns(uint256);\n}\n\n\ncontract MyCrowdSaleV2 is Ownable {\n\n\n    using SafeMath for uint256;\n    enum State { NotStarted, PreSale, GeneralSale, Successful, Refund, Closed }\n\n    event TokensPurchase(address indexed _buyer, uint256 _weiAmount, uint256 _numTokens);\n    event TokensCollected(address indexed buyer, uint256 amount);\n    event RefundFundsLoaded(address indexed wallet, uint256 amount);\n    event RefundProcessed(address indexed buyer, uint256 amount);\n    event UpdatedSaleLimits(uint256, uint256);\n    event UpdatedExchangeRates(uint256, uint256);\n    event FundsTransferred(address indexed _wallet, uint256 _weiAmount);\n    event PreSaleOpened();\n    event PreSaleClosed();\n    event GeneralSaleOpened();\n    event GeneralSaleClosed();\n    event CrowdSaleClosed();\n    event FundingTargetReached();\n    event FundingTargetFailed();\n    event RefundingStarted();\n\n// TODO\n//add loadRefund logic. This accepts ETHER from external account in order to process refunds\n\n    MyMintableToken public token;\n    bool public halted;\n    uint256 public preSaleStartTime = 0;\n    uint256 public preSaleEndTime = 0;\n    uint256 public generalSaleStartTime = 0;\n    uint256 public generalSaleEndTime = 0;\n\n    State public state = State.NotStarted;\n    uint256 constant public GENERAL_SALE_DURATION = 90 * 1 days;\n    uint256 constant public PRE_SALE_DURATION = 15 * 1 days;\n    uint256  public minimumFunding = 400000000000000000000;    //1 million tokens = 400 ETHER\n    uint256  public maximumFunding = 47543000000000000000000; // 100 million tokens\n    uint256  public preSaleExchangeRateinWei = 400000000000000; // 1 EPG = 1/2500 ETHER = 476190476190476 wei\n    uint256  public generalSaleExchangeRateinWei = 476190476190476; // 1 EPG = 1/2100 ETHER = 476190476190476 wei\n    // address where funds will stored be during the crowdsale is closed\n    address public wallet = 0x2406e113bb4e729629cc9339934e29532eb8528d;\n    uint256 public fundsRaisedInWei = 0; // in wei\n    uint256 public totalRefundedInWei = 0;\n    uint256 public tokensIssued = 0;\n    uint256 public tokensCollected = 0;\n    uint256 public refundPool = 0;\n\n    mapping (address => uint256) public investedAmount;\n    mapping (address => uint256) public allocatedTokens;\n\n    function MyCrowdSaleV2(address _tokenAddress, uint256 _startTime) public {\n        require(_startTime >= now);\n        //require(endTime >= startTime);\n        //require(exchangeRate > 0);\n        require(state == State.NotStarted);\n        token = MyMintableToken(_tokenAddress);\n        preSaleStartTime = _startTime;\n        preSaleEndTime = preSaleStartTime.add(PRE_SALE_DURATION);\n        halted = false;\n        //state = State.NotStarted;\n        //tokenContractOwner = _tokenContractOwner;\n        //token = new MyMintableToken();\n    }\n\n    function() external payable {\n        buyTokens(msg.sender, msg.value);\n    }\n\n    function haltSale()  public  onlyOwner returns(bool) {\n        require(state != State.Closed);\n        require(!halted);\n        halted = true;\n        return true;\n    }\n\n    function resumeSale()  public onlyOwner returns(bool) {\n        require(state != State.Closed);\n        require(halted);\n        halted = false;\n        return true;\n    }\n\n    function openPreSale() public onlyOwner {\n        require(state == State.NotStarted);\n        state = State.PreSale;\n        PreSaleOpened();\n    }\n\n    // close pre-sale and open general sale\n    function closePreSale() public onlyOwner {\n        require(state == State.PreSale);\n        state = State.GeneralSale;\n        generalSaleStartTime = now;\n        generalSaleEndTime = generalSaleStartTime.add(GENERAL_SALE_DURATION);\n        PreSaleClosed();\n        GeneralSaleOpened();\n    }\n\n    function closeGeneralSale() public onlyOwner {\n        require(state == State.GeneralSale);\n        //require(fundsRaised == 0); // can only close funding after tokens are moved\n        if (fundsRaisedInWei >= minimumFunding) {\n            state = State.Successful;\n            FundingTargetReached();\n        } else {\n            state = State.Refund;\n            FundingTargetFailed();\n            RefundingStarted();\n        }\n        GeneralSaleClosed();\n    }\n\n    function closeCrowdSale() public onlyOwner {\n        //require(fundsRaisedInWei == totalRefundedInWei); // can only close funding after tokens are collected\n        require(state == State.Successful || state == State.Refund);\n        if (state == State.Successful) {\n            require(fundsRaisedInWei == 0); //sale can only be closed after all the funds are transferred.\n            require(tokensCollected == tokensIssued);\n        }\n        if (state == State.Refund) {\n            require(fundsRaisedInWei == totalRefundedInWei); // all funds have been returned\n            require(tokensCollected == 0);\n        }\n        state == State.Closed;\n        CrowdSaleClosed();\n    }\n\n    function updateSaleLimits(uint256 _softcap, uint256 _hardcap) public onlyOwner returns(bool) {\n        require(state == State.PreSale || state == State.GeneralSale);\n        require(halted);\n        minimumFunding = _softcap;\n        maximumFunding = _hardcap;\n        UpdatedSaleLimits(_softcap, _hardcap);\n        return true;\n    }\n\n    function updateExchangeRates(uint256 preSaleXRATE, uint256 generalSaleXRATE) public onlyOwner returns(bool) {\n        require(state == State.PreSale || state == State.GeneralSale);\n        require(halted);\n        preSaleExchangeRateinWei = preSaleXRATE;\n        generalSaleExchangeRateinWei = generalSaleXRATE;\n        UpdatedExchangeRates(preSaleXRATE, generalSaleXRATE);\n        return true;\n    }\n\n    function collectTokens() public returns(bool) {\n        require(state == State.Successful);\n        require(allocatedTokens[msg.sender] > 0);\n        uint256 amount = allocatedTokens[msg.sender];\n        if (token.minting(msg.sender, amount) == amount) {\n            allocatedTokens[msg.sender] == 0;\n            tokensCollected = tokensCollected.add(amount);\n            TokensCollected(msg.sender, amount);\n            return true;\n        } else {\n            return false;\n        }\n    }\n\n    function loadRefund() public payable {\n        require(state == State.Refund);\n        require(msg.sender == wallet);\n        require(msg.value == fundsRaisedInWei);\n        //wallet.transfer(msg.value);\n        RefundFundsLoaded(msg.sender, msg.value);\n    }\n\n    function collectRefund() public {\n        require(state == State.Refund);\n        require(investedAmount[msg.sender] > 0);\n        uint256 refundAmountInWei = investedAmount[msg.sender];\n        totalRefundedInWei = totalRefundedInWei.add(refundAmountInWei);\n        investedAmount[msg.sender] = 0;\n        allocatedTokens[msg.sender] = 0;\n        (msg.sender).transfer(refundAmountInWei);\n        RefundProcessed(msg.sender, refundAmountInWei);\n    }\n\n    // This call cannot be public\n    function buyTokens(address buyer, uint256 weiAmount) internal {\n        require(checkPreSaleOn() || checkGeneralSaleOn());\n        require(!halted);\n        require(buyer != address(0));\n        require(weiAmount > 0);\n        require(weiAmount % 1 ether == 0); // only integer numbers\n        uint256 numTokens;\n\n        if (state == State.PreSale) {\n            require(weiAmount <= 20000000000000000000); // max 20 ETHER\n            numTokens = weiAmount.div(preSaleExchangeRateinWei);\n        }\n        if (state == State.GeneralSale) {\n            require(weiAmount <= 20000000000000000000); // max 20 ETHER\n            numTokens = weiAmount.div(generalSaleExchangeRateinWei);\n        }\n\n        investedAmount[buyer] = investedAmount[buyer].add(weiAmount);\n        fundsRaisedInWei = fundsRaisedInWei.add(weiAmount);\n\n        allocatedTokens[buyer] = allocatedTokens[buyer].add(numTokens);\n        tokensIssued = tokensIssued.add(numTokens);\n        TokensPurchase(buyer, weiAmount, numTokens);\n\n        if (fundsRaisedInWei + weiAmount >= maximumFunding) {\n            closePreSale();\n            closeGeneralSale();\n        }\n\n        wallet.transfer(weiAmount);\n    }\n\n    function checkPreSaleOn() internal view returns(bool) {\n        bool saleOn = (preSaleStartTime <= now && preSaleEndTime >= now);\n        bool stateOK = (state == State.PreSale);\n        bool capNotReached = (fundsRaisedInWei < maximumFunding);\n        return saleOn && stateOK && capNotReached;\n    }\n\n    function checkGeneralSaleOn() internal view returns(bool) {\n        bool saleOn = (generalSaleStartTime <= now && generalSaleEndTime >= now);\n        bool stateOK = (state == State.GeneralSale);\n        bool capNotReached = (fundsRaisedInWei < maximumFunding);\n        return saleOn && stateOK && capNotReached;\n    }\n\n\n\n}\n",
  "sourcePath": "/media/psf/solidity/MyERC/contracts/MyCrowdSaleV2.sol",
  "compiler": {
    "name": "solc",
    "version": "0.4.18+commit.9cf6e910.Emscripten.clang"
  },
  "schemaVersion": "1.0.1",
  "updatedAt": "2018-03-09T20:15:54.203Z"
}